{
  "contractName": "Store",
  "abi": [
    {
      "inputs": [],
      "payable": false,
      "stateMutability": "nonpayable",
      "type": "constructor"
    },
    {
      "constant": false,
      "inputs": [
        {
          "name": "fingerprint",
          "type": "bytes"
        },
        {
          "name": "price",
          "type": "uint256"
        }
      ],
      "name": "add",
      "outputs": [
        {
          "name": "_fingerprint",
          "type": "bytes"
        }
      ],
      "payable": false,
      "stateMutability": "nonpayable",
      "type": "function"
    },
    {
      "constant": true,
      "inputs": [
        {
          "name": "fingerprint",
          "type": "bytes"
        }
      ],
      "name": "getPrice",
      "outputs": [
        {
          "name": "_price",
          "type": "uint256"
        }
      ],
      "payable": false,
      "stateMutability": "view",
      "type": "function"
    },
    {
      "constant": false,
      "inputs": [
        {
          "name": "fingerprint",
          "type": "bytes"
        }
      ],
      "name": "buy",
      "outputs": [
        {
          "name": "_fingerprint",
          "type": "bytes"
        }
      ],
      "payable": true,
      "stateMutability": "payable",
      "type": "function"
    },
    {
      "constant": true,
      "inputs": [
        {
          "name": "fingerprint",
          "type": "bytes"
        }
      ],
      "name": "proveBuy",
      "outputs": [
        {
          "name": "",
          "type": "bool"
        }
      ],
      "payable": false,
      "stateMutability": "view",
      "type": "function"
    },
    {
      "constant": true,
      "inputs": [
        {
          "name": "fingerprint",
          "type": "bytes"
        }
      ],
      "name": "proveOwnership",
      "outputs": [
        {
          "name": "",
          "type": "bool"
        }
      ],
      "payable": false,
      "stateMutability": "view",
      "type": "function"
    }
  ],
  "bytecode": "0x608060405234801561001057600080fd5b5033600260006101000a81548173ffffffffffffffffffffffffffffffffffffffff021916908373ffffffffffffffffffffffffffffffffffffffff1602179055506108c8806100616000396000f30060806040526004361061006d576000357c0100000000000000000000000000000000000000000000000000000000900463ffffffff1680634559b892146100725780634b2116be146101475780636b4dd158146101c8578063881c75de14610245578063a46dd54e14610331575b600080fd5b6100cc600480360381019080803590602001908201803590602001908080601f01602080910402602001604051908101604052809392919081815260200183838082843782019150505050505091929192905050506103b2565b6040518080602001828103825283818151815260200191508051906020019080838360005b8381101561010c5780820151818401526020810190506100f1565b50505050905090810190601f1680156101395780820380516001836020036101000a031916815260200191505b509250505060405180910390f35b34801561015357600080fd5b506101ae600480360381019080803590602001908201803590602001908080601f01602080910402602001604051908101604052809392919081815260200183838082843782019150505050505091929192905050506105c3565b604051808215151515815260200191505060405180910390f35b3480156101d457600080fd5b5061022f600480360381019080803590602001908201803590602001908080601f016020809104026020016040519081016040528093929190818152602001838380828437820191505050505050919291929050505061068e565b6040518082815260200191505060405180910390f35b34801561025157600080fd5b506102b6600480360381019080803590602001908201803590602001908080601f01602080910402602001604051908101604052809392919081815260200183838082843782019150505050505091929192908035906020019092919050505061070b565b6040518080602001828103825283818151815260200191508051906020019080838360005b838110156102f65780820151818401526020810190506102db565b50505050905090810190601f1680156103235780820380516001836020036101000a031916815260200191505b509250505060405180910390f35b34801561033d57600080fd5b50610398600480360381019080803590602001908201803590602001908080601f01602080910402602001604051908101604052809392919081815260200183838082843782019150505050505091929192905050506107d1565b604051808215151515815260200191505060405180910390f35b60606000806000846040518082805190602001908083835b6020831015156103ef57805182526020820191506020810190506020830392506103ca565b6001836020036101000a038019825116818451168082178552505050505050905001915050908152602001604051809103902091506001846040518082805190602001908083835b60208310151561045c5780518252602082019150602081019050602083039250610437565b6001836020036101000a03801982511681845116808217855250505050505090500191505090815260200160405180910390209050816001015434101561050b576040517f08c379a000000000000000000000000000000000000000000000000000000000815260040180806020018281038252601c8152602001807f496e73756666696369656e742066756e64732070726f76696465642e0000000081525060200191505060405180910390fd5b338160000160006101000a81548173ffffffffffffffffffffffffffffffffffffffff021916908373ffffffffffffffffffffffffffffffffffffffff1602179055508160000160009054906101000a900473ffffffffffffffffffffffffffffffffffffffff1673ffffffffffffffffffffffffffffffffffffffff166108fc349081150290604051600060405180830381858888f193505050501580156105b8573d6000803e3d6000fd5b508392505050919050565b6000806000836040518082805190602001908083835b6020831015156105fe57805182526020820191506020810190506020830392506105d9565b6001836020036101000a038019825116818451168082178552505050505050905001915050908152602001604051809103902090503373ffffffffffffffffffffffffffffffffffffffff168160000160009054906101000a900473ffffffffffffffffffffffffffffffffffffffff1673ffffffffffffffffffffffffffffffffffffffff1614915050919050565b6000806000836040518082805190602001908083835b6020831015156106c957805182526020820191506020810190506020830392506106a4565b6001836020036101000a038019825116818451168082178552505050505050905001915050908152602001604051809103902090508060010154915050919050565b6060600080846040518082805190602001908083835b6020831015156107465780518252602082019150602081019050602083039250610721565b6001836020036101000a03801982511681845116808217855250505050505090500191505090815260200160405180910390209050338160000160006101000a81548173ffffffffffffffffffffffffffffffffffffffff021916908373ffffffffffffffffffffffffffffffffffffffff1602179055508281600101819055508391505092915050565b6000806001836040518082805190602001908083835b60208310151561080c57805182526020820191506020810190506020830392506107e7565b6001836020036101000a038019825116818451168082178552505050505050905001915050908152602001604051809103902090503373ffffffffffffffffffffffffffffffffffffffff168160000160009054906101000a900473ffffffffffffffffffffffffffffffffffffffff1673ffffffffffffffffffffffffffffffffffffffff16149150509190505600a165627a7a723058201cb678d40da187ed39a963a4feebe024778d7464af7a15d74a4ed727a5bfdb610029",
  "source": "pragma solidity ^0.4.4;\n\ncontract Store {\n\n    struct Content {\n        address owner;\n        uint price;\n    }\n    \n    struct Order {\n        address buyer;\n    }\n    \n    mapping(bytes => Content) contents;\n    mapping(bytes => Order) orders;\n\n    address contractMaker;\n    \n    constructor() public {\n        contractMaker = msg.sender;\n    }\n    \n    function add(bytes fingerprint, uint price) public returns (bytes _fingerprint) {\n        Content content = contents[fingerprint];\n        content.owner = msg.sender;\n        content.price = price;\n        return fingerprint;\n    }\n        \n    function getPrice(bytes fingerprint) public constant returns(uint _price){\n        Content content = contents[fingerprint];\n        return (content.price);\n    }\n    \n    function buy(bytes fingerprint) public payable returns(bytes _fingerprint){\n        Content content = contents[fingerprint];\n        Order order = orders[fingerprint];\n        if (msg.value < content.price) {\n            revert(\"Insufficient funds provided.\");\n        } else {\n            order.buyer = msg.sender;\n            content.owner.transfer(msg.value);\n            return fingerprint;\n        }   \n    }\n    \n    function proveBuy(bytes fingerprint) public constant returns (bool){\n        Order order = orders[fingerprint];\n        return order.buyer == msg.sender;\n    }\n    \n    function proveOwnership(bytes fingerprint) public constant returns (bool){\n        Content content = contents[fingerprint];\n        return content.owner == msg.sender;\n    }\n}",
  "sourcePath": "/Users/nikolaystoev/Documents/sol_marketplace/contracts/contracts/Store.sol",
  "compiler": {
    "name": "solc",
    "version": "0.4.24+commit.e67f0147.Emscripten.clang"
  },
  "schemaVersion": "2.0.1",
  "updatedAt": "2018-11-05T13:44:26.986Z"
}